:100000000C9462000C948A000C948A000C948A0070
:100010000C948A000C948A000C948A000C948A0038
:100020000C948A000C948A000C948A000C94B005FD
:100030000C948A000C948A000C948A000C948A0018
:100040000C940E050C948A000C947E050C945805B3
:100050000C948A000C948A000C948A000C948A00F8
:100060000C948A000C948A000000000023002600F3
:10007000290000000000240027002A0000000000E2
:10008000250028002B0004040404040404040202D4
:100090000202020203030303030301020408102007
:1000A0004080010204081020010204081020000012
:1000B0000008000201000003040700000000000027
:1000C00000006C0611241FBECFEFD8E0DEBFCDBF0D
:1000D00012E0A0E0B1E0E4ECFFE002C005900D9278
:1000E000A630B107D9F722E0A6E0B2E001C01D9228
:1000F000A93EB207E1F710E0C2E6D0E004C02197C4
:10010000FE010E94DA07C136D107C9F70E94D10665
:100110000C94E0070C940000AF92BF92CF92DF9254
:10012000EF92FF920F931F93CF93DF936C017B01AC
:100130008B01040F151FEB015E01AE18BF08C0173D
:10014000D10759F06991D601ED91FC910190F081B0
:10015000E02DC6010995892B79F7C501DF91CF9173
:100160001F910F91FF90EF90DF90CF90BF90AF90D5
:100170000895FC01538D448D252F30E0842F90E0AD
:10018000821B930B541710F0CF9608950197089592
:10019000FC01918D828D981761F0A28DAE0FBF2F5B
:1001A000B11D5D968C91928D9F5F9F73928F90E0B1
:1001B00008958FEF9FEF0895FC01918D828D981720
:1001C00031F0828DE80FF11D858D90E008958FEF5D
:1001D0009FEF0895FC01918D228D892F90E0805C26
:1001E0009F4F821B91098F73992708958BE192E0AD
:1001F0000E94EA0021E0892B09F420E0822F089573
:10020000FC01A48DA80FB92FB11DA35ABF4F2C918B
:10021000848D90E001968F739927848FA689B78982
:100220002C93A089B1898C91837080648C93938D79
:10023000848D981306C00288F389E02D80818F7D1C
:1002400080830895EF92FF920F931F93CF93DF93D4
:10025000EC0181E0888F9B8D8C8D98131AC0E88902
:10026000F989808185FF15C09FB7F894EE89FF89D1
:100270006083E889F98980818370806480839FBF6F
:1002800081E090E0DF91CF911F910F91FF90EF906F
:100290000895F62E0B8D10E00F5F1F4F0F7311277F
:1002A000E02E8C8D8E110CC00FB607FCFACFE889BA
:1002B000F989808185FFF5CFCE010E940001F1CF41
:1002C000EB8DEC0FFD2FF11DE35AFF4FF0829FB72E
:1002D000F8940B8FEA89FB8980818062CFCFCF931E
:1002E000DF93EC01888D8823B9F0AA89BB89E8895E
:1002F000F9898C9185FD03C0808186FD0DC00FB604
:1003000007FCF7CF8C9185FFF2CF808185FFEDCF81
:10031000CE010E940001E9CFDF91CF910895833093
:1003200081F028F4813099F08230A9F00895873067
:10033000A9F08830C9F08430B1F4809180008F7DBD
:1003400003C0809180008F7780938000089584B5EA
:100350008F7784BD089584B58F7DFBCF8091B000E9
:100360008F778093B00008958091B0008F7DF9CF92
:100370001F93CF93DF93282F30E0F901E255FF4F11
:100380008491F901E656FF4FD491F901EA57FF4FE6
:10039000C491CC23A9F0162F81110E948F01EC2F5C
:1003A000F0E0EE0FFF1FE458FF4FA591B4918FB717
:1003B000F894EC91111108C0D095DE23DC938FBF27
:1003C000DF91CF911F910895DE2BF8CFCF93DF936C
:1003D00090E0FC01E656FF4F24918A579F4FFC01A5
:1003E00084918823C9F090E0880F991FFC01EE5892
:1003F000FF4FA591B491FC01E458FF4FC591D491F2
:1004000061110DC09FB7F8948C91209582238C9335
:100410008881282328839FBFDF91CF910895623080
:1004200051F49FB7F8943C91822F809583238C934D
:10043000E8812E2BEFCF8FB7F894EC912E2B2C93D5
:100440008FBFEACFCF93DF93EC016B3081F4E8816B
:100450008FEF8E0F893058F4E150FF0BEE0FFF1F26
:10046000EE52FE4F0190F081E02DCE0109951886E5
:10047000DF91CF910895FC018781861303C084E04A
:100480008087089510860895FC018681DF01A80FFA
:10049000B11D11966C939781690F67838F5F868377
:1004A000853011F483E080870895FC018FEF860F7B
:1004B000893038F48781860F8783608382E0808764
:1004C000089510860895FC01603B29F46783168225
:1004D00081E080870895108608958F929F92AF9251
:1004E000BF92FF920F931F93CF93DF93FC01218163
:1004F000243008F05EC030E0F901EE0FFF1FE20F7C
:10050000F31FE352FD4FF0802BE02F1508F451C08C
:10051000228108E512E0021B110927FD1395000F47
:10052000111F000F111F2181C8E8D0E0C21BD109A3
:1005300027FDD395CC0FDD1FCC0FDD1F4E010D2EF7
:10054000000CAA08BB08FC01A281B0E0A53BB105E4
:1005500014F0A4EBB0E09801012E000C440B550BF5
:10056000281939094A095B090E94810724EB30E008
:1005700040E050E00E945707820E931EA41EB51E55
:100580008C169D062CF0E801801691060CF4E4010F
:100590002297CC0FDD1F2FB7F8948F2D90E0FC0130
:1005A000EE0FFF1FE80FF91FE854FD4FD283C18300
:1005B0002FBFDF91CF911F910F91FF90BF90AF9010
:1005C0009F908F9008958F929F92AF92BF92CF92FB
:1005D000DF92EF92FF92DC011196EC9160E0E43043
:1005E00008F05DC0F0E0CF01880F991FE80FF91FF8
:1005F000E352FD4F828168E5C62E62E0D62EC81A0E
:10060000D10887FDD394CC0CDD1CCC0CDD1C0D2C4B
:10061000000CEE08FF088181A8E88A2E912C881A28
:10062000910887FD9394880C991C880C991C092CBF
:10063000000CAA08BB0880818F3FE9F190E0FC0123
:10064000EE0FFF1FE80FF91FE854FD4F81819281E3
:1006500033E0880F991F3A95E1F7B0E0A0E044E05D
:10066000B595A795979587954A95D1F702969C01E0
:100670002F5F3F4F032E000C440B550B28193909EF
:100680004A095B09A4EBB0E00E947607A701960136
:10069000281939094A095B090E945707622F8BE123
:1006A00092E0FF90EF90DF90CF90BF90AF909F903F
:1006B0008F900C94220190E080E0D9CFFC018181E1
:1006C0008430A8F490E0FC01EE0FFF1FE80FF91F43
:1006D000E352FD4FE0818E2F90E0FC01EE0FFF1FF3
:1006E000E80FF91FE854FD4F80818F7B80830895C8
:1006F000DF92EF92FF920F931F93CF93DF93FC0152
:10070000C181C43008F065C0D0E07E01EE0CFF1C52
:1007100087010C0F1D1F03521D4FF80120812C3043
:1007200008F057C0FC01D28061E08D2D0E94E601E7
:10073000F8018081282F30E0F901EE0FFF1FE20F52
:10074000F31FE854FD4F2D2D2F739081907C922B39
:100750009083F801118212822CE0622F0E94BA0766
:10076000829FB001112430E020E0AB01420F531F03
:10077000FA01EE0FFF1FE40FF51FE854FD4F9081C3
:1007800096FD16C02F5F3F4F2C30310571F7811158
:100790000FC01092800082E080938100109285004B
:1007A00010928400B19A80916F00826080936F00F4
:1007B000CE0DDF1DC352DD4FE8818E2F90E0FC018E
:1007C000EE0FFF1FE80FF91FE854FD4F8081806492
:1007D0008083DF91CF911F910F91FF90EF90DF9079
:1007E0000895FC0181819EEF980F923138F4928137
:1007F00061E0911101C060E00C94B80108950F937D
:100800001F93CF93DF93FC01C181C33049F02BEFDD
:100810002C0F223028F027EF2C0F233008F03CC09B
:10082000FC01D2810D2F10E061E08C2F0E94E601C7
:100830000115110541F460E08C2FDF91CF911F91DC
:100840000F910C94B8010F3F110511F461E0F4CF42
:10085000EC2FF0E0E255FF4FE491E33039F140F442
:10086000E130B1F0E230E9F0003811057CF7E3CF78
:10087000E73031F1E83061F1E430B1F78091800088
:1008800080628093800010938B0000938A0004C0E4
:1008900084B5806884BDD7BDDF91CF911F910F9142
:1008A000089584B5806284BDD8BDF6CF8091800064
:1008B0008068809380001093890000938800ECCFBB
:1008C0008091B00080688093B000D093B300E4CFF3
:1008D0008091B00080628093B000D093B400DCCFF0
:1008E000CF93DF93FC0121818EEF820F8231F0F4F0
:1008F00030E0F901E255FF4F8491F901E656FF4FD0
:10090000D491F901EA57FF4FC491CC2379F08111BA
:100910000E948F01EC2FF0E0EE0FFF1FE859FF4F10
:10092000A591B491EC91ED2361E009F460E08BE1D5
:1009300092E0DF91CF910C942201CF93DF93FC01E1
:100940008181813001F58091060290910702FC01BE
:10095000EE0FFF1FE65FFE4FC081D181019664E676
:1009600070E00E94C60790930702809306026C2FE6
:100970008BE192E00E9422016D2F8BE192E0DF91EA
:10098000CF910C9422018E50D0E0C0E0883078F7EF
:10099000806480937C0080917A00806480937A00E8
:1009A00080917A0086FDFCCF80917800C09179001B
:1009B000DC2FC82FDCCFFC0181819EEF980F923194
:1009C00060F4928161E0913031F062E0923019F090
:1009D000933019F460E00C94E60108958BE192E005
:1009E0000E94EA00892B99F08BE192E00E94C800F6
:1009F000E0911102F0E0EE0FFF1FE050FF4F019079
:100A0000F081E02D682F89E092E00995E7CF089505
:100A10000E94F60081110C94EE0408951F920F922B
:100A20000FB60F9211242F933F938F939F93AF9301
:100A3000BF938091170290911802A0911902B09172
:100A40001A023091160223E0230F2D3758F5019634
:100A5000A11DB11D209316028093170290931802D6
:100A6000A0931902B0931A0280911202909113027E
:100A7000A0911402B09115020196A11DB11D8093A1
:100A8000120290931302A0931402B0931502BF9127
:100A9000AF919F918F913F912F910F900FBE0F902B
:100AA0001F90189526E8230F0296A11DB11DD2CFE5
:100AB0001F920F920FB60F9211242F933F934F93D3
:100AC0005F936F937F938F939F93AF93BF93EF93B6
:100AD000FF938BE192E00E940001FF91EF91BF91A3
:100AE000AF919F918F917F916F915F914F913F91C6
:100AF0002F910F900FBE0F901F9018951F920F927D
:100B00000FB60F9211242F938F939F93EF93FF9320
:100B1000E0912B02F0912C028081E0913102F09162
:100B2000320282FD1BC09081809134028F5F8F73EF
:100B300020913502821741F0E0913402F0E0E55E49
:100B4000FD4F958F80933402FF91EF919F918F918C
:100B50002F910F900FBE0F901F9018958081F4CFAA
:100B60001F920F920FB60F9211242F933F934F9322
:100B70005F936F937F938F939F93AF93BF93CF9325
:100B8000DF93EF93FF9380910802C091DC02D0E0E5
:100B900087FF24C010928500109284008091080283
:100BA0008F5F8093080280910802082E000C990B39
:100BB0008C179D0724F4809108028C30C4F1809139
:100BC000840090918500049680349C4908F47AC092
:100BD0008091840090918500049676C080910802EF
:100BE000082E000C990B8C179D07C4F6E0910802A3
:100BF0008E2FEE0F990BFC01EE0FFF1FE80FF91F70
:100C0000E854FD4F808186FFC9CFE09108028E2F06
:100C1000EE0F990BFC01EE0FFF1FE80FF91FE854D0
:100C2000FD4F808160E08F730E94B801B7CF2091A3
:100C3000840030918500E09108028E2FEE0F990B11
:100C4000FC01EE0FFF1FE80FF91FE854FD4F8181F3
:100C50009281820F931F9093890080938800E09186
:100C600008028E2FEE0F990BFC01EE0FFF1FE80F0D
:100C7000F91FE854FD4F808186FF11C0E091080202
:100C80008E2FEE0F990BFC01EE0FFF1FE80FF91FDF
:100C9000E854FD4F808161E08F730E94B801FF919D
:100CA000EF91DF91CF91BF91AF919F918F917F9104
:100CB0006F915F914F913F912F910F900FBE0F90C9
:100CC0001F90189580E49CE9909389008093880098
:100CD0008FEF80930802E3CF10921E0210921D0244
:100CE00088EE93E0A0E0B0E080931F029093200292
:100CF000A0932102B093220288EF91E090931C020E
:100D000080931B0285EC90E0909328028093270249
:100D100084EC90E090932A028093290280EC90E08A
:100D200090932C0280932B0281EC90E090932E0202
:100D300080932D0282EC90E09093300280932F02FA
:100D400086EC90E09093320280933102109234024C
:100D5000109235021092360210923702EDEDF2E059
:100D600029EE32E04FEF68EB7BE08091DC028C30C3
:100D7000B0F491E0980F9093DC02808390E0DC0166
:100D8000AA0FBB1FA80FB91FA854BD4F12967C9382
:100D90006E93119733962E173F0739F708954083C6
:100DA000F9CF789484B5826084BD84B5816084BDB8
:100DB00085B5826085BD85B5816085BD80916E00F9
:100DC000816080936E00109281008091810082602A
:100DD0008093810080918100816080938100809167
:100DE00080008160809380008091B1008460809356
:100DF000B1008091B00081608093B00080917A0052
:100E0000846080937A0080917A00826080937A0077
:100E100080917A00816080937A0080917A00806866
:100E200080937A001092C100E0912B02F0912C0285
:100E300082E08083E0912702F09128021082E09105
:100E40002902F0912A0280E1808310923302E0911E
:100E50002F02F091300286E08083E0912D02F09124
:100E60002E02808180618083E0912D02F0912E021C
:100E7000808188608083E0912D02F0912E02808134
:100E800080688083E0912D02F0912E0280818F7D19
:100E90008083E9E0F2E089E0DF011D928A95E9F7BD
:100EA0000E94F6008823E1F30E94EE04F9CF052E9C
:100EB00097FB1EF400940E946E0757FD07D00E9416
:100EC000890707FC03D04EF40C946E0750954095AB
:100ED000309521953F4F4F4F5F4F089590958095E6
:100EE000709561957F4F8F4F9F4F08950E94AB077C
:100EF000A59F900DB49F900DA49F800D911D11246E
:100F00000895B7FF0C9476070E947607821B930B17
:100F10000895A1E21A2EAA1BBB1BFD010DC0AA1F3A
:100F2000BB1FEE1FFF1FA217B307E407F50720F052
:100F3000A21BB30BE40BF50B661F771F881F991FCD
:100F40001A9469F760957095809590959B01AC0116
:100F5000BD01CF010895A29FB001B39FC001A39F1F
:100F6000700D811D1124911DB29F700D811D1124E2
:100F7000911D0895991B79E004C0991F961708F0F8
:100F8000961B881F7A95C9F780950895AA1BBB1BED
:100F900051E107C0AA1FBB1FA617B70710F0A61B79
:100FA000B70B881F991F5A95A9F780959095BC019A
:100FB000CD010895EE0FFF1F0590F491E02D0994E7
:040FC000F894FFCFD3
:100FC4006302550244023B02220200022002400254
:100FD4005F027F029E02BC02D902F60212032C03B6
:100FE40046035E0375038A039E03B003C003CF0365
:100FF400DC03E603EF03F603FB03FE030004FE0336
:10100400FB03F603EF03E603DC03CF03C003B003E3
:101014009E038A0375035E0346032C031203F60240
:10102400D902BC029E027F025F024002200200023B
:10103400DF01BF01A0018001610143012601090113
:10104400ED00D300B900A1008A00750061004F00D3
:101054003F003000230019001000090004000100C3
:1010640000000100040009001000190023003000F2
:101074003F004F00610075008A00A100B900D30051
:10108400ED0009012601430161018001A001BF01B6
:10109400DF01DB049D047004FF03F10378035E03A6
:1010A400E3026D02000000000000000000000000E8
:1010B400000000000000000022018C00B9006F0154
:0610C400EA00C800DC0098
:107E0000112484B714BE81FFF0D085E080938100F7
:107E100082E08093C00088E18093C10086E0809377
:107E2000C20080E18093C4008EE0C9D0259A86E02C
:107E300020E33CEF91E0309385002093840096BBD3
:107E4000B09BFECF1D9AA8958150A9F7CC24DD24C4
:107E500088248394B5E0AB2EA1E19A2EF3E0BF2EE7
:107E6000A2D0813461F49FD0082FAFD0023811F036
:107E7000013811F484E001C083E08DD089C08234E0
:107E800011F484E103C0853419F485E0A6D080C0E4
:107E9000853579F488D0E82EFF2485D0082F10E0AE
:107EA000102F00270E291F29000F111F8ED06801E7
:107EB0006FC0863521F484E090D080E0DECF843638
:107EC00009F040C070D06FD0082F6DD080E0C81688
:107ED00080E7D80618F4F601B7BEE895C0E0D1E017
:107EE00062D089930C17E1F7F0E0CF16F0E7DF06D8
:107EF00018F0F601B7BEE89568D007B600FCFDCFD4
:107F0000A601A0E0B1E02C9130E011968C91119780
:107F100090E0982F8827822B932B1296FA010C0160
:107F200087BEE89511244E5F5F4FF1E0A038BF0790
:107F300051F7F601A7BEE89507B600FCFDCF97BE46
:107F4000E89526C08437B1F42ED02DD0F82E2BD052
:107F50003CD0F601EF2C8F010F5F1F4F84911BD097
:107F6000EA94F801C1F70894C11CD11CFA94CF0C13
:107F7000D11C0EC0853739F428D08EE10CD085E9AC
:107F80000AD08FE07ACF813511F488E018D01DD067
:107F900080E101D065CF982F8091C00085FFFCCF94
:107FA0009093C60008958091C00087FFFCCF809118
:107FB000C00084FD01C0A8958091C6000895E0E648
:107FC000F0E098E1908380830895EDDF803219F02E
:107FD00088E0F5DFFFCF84E1DECF1F93182FE3DFCA
:107FE0001150E9F7F2DF1F91089580E0E8DFEE27F6
:047FF000FF270994CA
:027FFE00040479
:0400000300007E007B
:00000001FF
